:020000040800F2
:1000000058F40120350300083D0300083F030008B1
:1000100041030008430300084503000800000000F6
:100020000000000000000000000000001123000894
:100030004903000800000000811F00083D2400085B
:100040004F0300084F0300084F0300084F03000848
:100050004F0300084F0300084F0300084F03000838
:100060004F0300084F0300084F0300084F03000828
:100070004F0300084F0300084F0300084F03000818
:100080004F0300084F0300084F0300080000000062
:10009000000000000000000000000000C11B00087C
:1000A0004F0300084F0300084F0300084F030008E8
:1000B0004F0300084F0300084F0300084F030008D8
:1000C0004F0300084F0300084F0300084F030008C8
:1000D0004F0300084F0300084F0300080000000012
:1000E0004F0300084F0300084F0300080000000002
:1000F0000000000000000000000000004F030008A6
:10010000000000004F0300084F0300084F030008E1
:1001100000000000000000000000000000000000DF
:100120004F0300084F0300084F030008CD1A0008D2
:10013000551B000800000000000000000000000047
:100140000000000000000000000000004F03000855
:100150004F0300084F0300084F0300084F03000837
:100160004F0300084F0300080000000000000000DB
:10017000000000000000000000000000000000007F
:10018000000000004F030008000000000000000015
:100190004F0300084F03000800F002F800F0BBF81E
:1001A0000AA090E8000C82448344AAF10107DA45D2
:1001B00001D100F0B0F8AFF2090EBAE80F0013F069
:1001C000010F18BFFB1A43F00103184738FC050064
:1001D00058FC05000A444FF0000C10F8013B13F0E6
:1001E000070408BF10F8014B1D1108BF10F8015B90
:1001F000641E05D010F8016B641E01F8016BF9D183
:1002000013F0080F1EBF10F8014BAD1C0C1B09D1D9
:100210006D1E58BF01F801CBFAD505E014F8016B4B
:1002200001F8016B6D1EF9D59142D6D370470000DD
:100230000023002400250026103A28BF78C1FBD8EF
:10024000520728BF30C148BF0B6070476E2900F0CD
:10025000C583702900F00985662911F0FCA765297E
:1002600011F0F9A7672911F0F6A7612911F0F5A798
:1002700003681B0A28BF41F08001692900F07283DE
:10028000642900F06F83752900F06C836F2900F0FA
:100290009784782900F0D584E92900F03184E42995
:1002A00000F02E84F52900F02B84EF2900F09484CF
:1002B000F82900F0D4840368DB0928BF41F08001ED
:1002C000632901F01382732901F01882E32901F0F8
:1002D0002382F32901F02882002070471FB551F0D6
:1002E000A8FF9DE8030000F099FA01F09BFA0400D2
:1002F0000020002151F0C4F9401C60600020002162
:1003000051F0A8F9E06000F05BFA1FBD10B50020C5
:1003100001F032FA10BD01F058FA1146FFF7DEFF86
:100320003EF07AF801F034FB03B4FFF7EFFF03BCB3
:1003300001F064FB0948804709480047FEE7FEE7F3
:10034000FEE7FEE7FEE7FEE7FEE7FEE7FEE7FEE785
:1003500004480549054A064B704700008D250008F2
:100360009901000858E4012058F4012058EC0120BC
:1003700058EC012070B5064600F034FA056806F125
:100380000B0020F00704B4429CBF002070BD2B4638
:100390006A68BAB11068A04210D304F1080188421B
:1003A0003CBF5068586007D351681019416011680C
:1003B000091B016058601460101D70BD134652681F
:1003C000002AE7D12146284600F014FA0028DED1A1
:1003D00070BD70B50446051F00F004FA0068002CDB
:1003E00014BF446870BD002C18BFAC423CBF20460F
:1003F0006468F8D301680A18AA4218BF456003D19F
:100400002A6805461144016028684119A1421CBFB1
:100410006C6070BD6168696021680844286070BDC7
:1004200053EA020C00F069802DE9F04B4FF0000612
:10043000002B1FBFB3FA83F503FA05F424FA05F67F
:100440005E4012BF1643B2FA82F502FA05F4C5F116
:1004500020051EBF22FA05FC44EA0C04203556EAAA
:10046000044C4FEA144418BF641C4FF000084FF0CE
:100470000009904271EB030C39D3002919BFB1FA7E
:1004800081F701FA07F6B0FA80F700FA07F6C7F12C
:1004900020071EBF20FA07FC46EA0C062037B6FBF1
:1004A000F4FCA7EB0507103F07F01F0BCBF120066C
:1004B0002CFA06F60CFA0BFB44BFB3460026202F9D
:1004C000A4BF5E464FF0000B5BEA060C08BF4FF07E
:1004D000010B19EB0B0948EB0608ABFB027C06FB92
:1004E00002CC0BFB03CCC01B71EB0C01C1E70B462C
:1004F000024641464846BDE8F08B13B5084318BF95
:100500004FF0FF300146AFF30080BDE81C4070475C
:1005100053EA020C23D010B54C1084EA530404D5DE
:100520004042C1F1000138BF491E1B4204D552426E
:10053000C3F1000338BF5B1EFFF772FF14F0804F5A
:1005400004D04042C1F1000138BF491E14F0004FF1
:1005500004D05242C3F1000338BF5B1E10BD13B577
:1005600040424FF0000070EB0104B8BF012001F0E1
:10057000004100281CBF6FF000414FF0FF30AFF387
:1005800000801CBD7CB51D4616460C00009007D0AF
:100590004142A14202D32044401E01E04FF0FF300F
:1005A000064B7B442A4669460190304600F02FFAFC
:1005B000002C02D0009A002111707CBD8F04000035
:1005C0000B460146184600F01FBC40EA010310B577
:1005D0009B070FD1042A0DD310C808C9121F9C42D3
:1005E000F8D020BA19BA884201D9012010BD4FF0C5
:1005F000FF3010BD1AB1D30703D0521C07E0002012
:1006000010BD10F8013B11F8014B1B1B07D110F86E
:10061000013B11F8014B1B1B01D1921EF1D1184671
:1006200010BD0022CBB210F8011B994200D1421E2E
:100630000029F8D110467047032A40F2308010F0AC
:10064000030C00F0158011F8013BBCF1020F62446D
:1006500098BF11F801CB00F8013B38BF11F8013BFE
:10066000A2F1040298BF00F801CB38BF00F8013BAB
:1006700011F0030300F02580083AC0F0088051F81B
:10068000043B083A51F804CBA0E80810F5E7121D26
:100690005CBF51F8043B40F8043BAFF30080D20745
:1006A00024BF11F8013B11F801CB48BF11F8012B11
:1006B00024BF00F8013B00F801CB48BF00F8012B34
:1006C000704710B5203AC0F00B80B1E81850A0E890
:1006D0001850B1E81850A0E81850203ABFF4F5AF10
:1006E0005FEA027C24BFB1E81850A0E8185044BF6C
:1006F00018C918C0BDE810405FEA827C24BF51F8D9
:10070000043B40F8043B08BF7047D20728BF31F8CC
:10071000023B48BF11F8012B28BF20F8023B48BF1D
:1007200000F8012B70474FF000020429C0F012803E
:1007300010F0030C00F01B80CCF1040CBCF1020F94
:1007400018BF00F8012BA8BF20F8022BA1EB0C0169
:1007500000F00DB85FEAC17C24BF00F8012B00F85F
:10076000012B48BF00F8012B70474FF0000200B585
:10077000134694469646203922BFA0E80C50A0E8C4
:100780000C50B1F12001BFF4F7AF090728BFA0E872
:100790000C5048BF0CC05DF804EB890028BF40F83E
:1007A000042B08BF704748BF20F8022B11F0804F80
:1007B00018BF00F8012B7047704770477047000062
:1007C00070B5064C7C44064D7D4404E0204601682B
:1007D00008448047241DAC42F8D170BD88F705005D
:1007E00090F7050000487047100D002070477047D3
:1007F0007047704738B504460A4600206946AFF393
:100800000080002808BF38BD02460099204600F04D
:100810001FFB012038BD012000F0CFBFF8B5AFF3BA
:100820000080054600200C46102000BF0646A8198F
:10083000A0420DD9324669460020AFF30080070080
:1008400008BF00F0BAFF0098A04218BF0546C419BF
:10085000FFF7C8FF05600746F01D20F007004619A6
:10086000284600F00AF8B44208BFF8BDA21B314682
:100870003868BDE8F84000F0EBBA00210160C0E93B
:10088000011070471020704710B500F0DDFA0068C5
:1008900010BD10B5044600F0D7FA046010BD70B565
:1008A000044685690068C10601D5302600E020268F
:1008B000C00707D070BDD4E9012130469047206AB7
:1008C000401C20626D1EF6D570BD70B5044685696A
:1008D0000078C00707D170BDD4E9012120209047DE
:1008E000206A401C20626D1EF6D570BD09684A055D
:1008F00001D540B27047C905FCD500B27047096800
:100900004A0501D5C0B27047C905FCD580B2704711
:1009100070B50C460546012A05D02878800600D51A
:10092000EA69002302E0012305E05B1C934202D246
:10093000E05C0028F9D1A869E618C01AA861286A05
:10094000184428622846FFF7AAFF04E0D5E90121F0
:1009500014F8010B9047B442F8D32846FFF7B5FFCF
:1009600070BD00002DE9F04106460024106875298D
:10097000314616A510D0FFF7B9FF002802DA404231
:1009800013A507E031688A0701D512A502E04907DF
:1009900004D511A5012401E0FFF7B1FF00210A22CF
:1009A00006F1240709E0B0FBF2FCB0FBF2F302FB16
:1009B0001C00303078541846491C0028F3D12346D7
:1009C0002A463046BDE8F04100F0A1BA0000000020
:1009D0002D0000002B0000002000000011680268BC
:1009E000006A530501D508700AE0D30501D50880D7
:1009F00006E0130603D5C217C1E9000200E0086053
:100A00000120704701694A1C02610878704700B5EF
:100A10008FB0CDE901310021059105497944CDE937
:100A200003101146684600F02BF90FB000BD00001E
:100A3000E5FFFFFFD1E900239A4202D2531C0B606D
:100A4000107070472DE9FF5F15468A460446DFF8AF
:100A5000AC80F8440027D8E900103E46CDE90010EC
:100A600010E03AF816106A4602A800F061FE411C38
:100A700007D02178890603D5E269391891420DD84B
:100A80000744761C2078800602D5E069B84205DD6F
:100A9000AE42E6DB3AF816000028E2D1A069C01B9E
:100AA000A0612046FFF7FBFED8E90010CDE9001059
:100AB000002017E03AF818106A4602A800F038FE45
:100AC000B0F1FF3F81460BD000250DF1080B05E08A
:100AD000D4E901211BF8050090476D1C4D45F7D363
:100AE00008F10100B0428046E4DB206A384420620D
:100AF0002046FFF7EAFEBDE8FF9F0000BE18050094
:100B00002DE9F0418046D21D22F007020025D2E9EE
:100B10000002F52915A614D0011E72F1000106DAB3
:100B20000023D0EB030063EB020211A608E0D8F823
:100B300000108B0701D50FA602E0490701D50EA6CC
:100B400001251146002408F1240704E000F09AF979
:100B500030323A55641C50EA0102F7D12B46324636
:100B600021464046BDE8F04100F0D1B90000000048
:100B70002D0000002B0000002000000030B40021F8
:100B800000F1240408E002F00705D208303542EAFB
:100B90004372DB086554491C52EA0305F3D104682B
:100BA000002310A2250708D504F020040C4304D02C
:100BB000C46901230CA2641EC46130BC00F0A7B953
:100BC00010B5044621461068FFF799FE02462046FC
:100BD000BDE810400023D1E7D21D22F00701D1E982
:100BE0000023CBE70000000030000000F0B40D4609
:100BF0000188090502D5214C7C4402E01F4C7C444D
:100C00000E34002100F1240608E002F00F0712095B
:100C1000E75D42EA03721B097754491C52EA030755
:100C2000F3D102780023120704D5702D06D009B144
:100C3000022311342246F0BC00F069B901231034BC
:100C4000F8E770B504460D4621461068FFF757FED9
:100C5000024629462046BDE870400023C6E7D21D63
:100C600022F00703D3E90023C0E70368126843F0CA
:100C7000200303600823C3610023B7E720170500A2
:100C80002DE9F05F894604464FF0000ADFF874B1A1
:100C9000FB44C0F820A02046E1688847002874D0B3
:100CA000252806D0D4E901219047206A401C206203
:100CB000F1E700265F462046E16888472028054680
:100CC00007DB312D05D2781910F8200C08B1064346
:100CD000F1E7B00701D526F00406C4F81CA00027F0
:100CE000C4F818A02A2D09D028464EF0B3FC38B31A
:100CF00004EB8708303DC8F8185019E059F8041B78
:100D0000204604EB87029161E1688847012F054680
:100D100018D1E069002820DA26F020061DE0D8F876
:100D2000180000EB800005EB40003038C8F81800D0
:100D30002046E168884705464EF08CFC0028EED13D
:100D4000012F0AD02E2D08D12046E16888477F1C4C
:100D50000546022F46F02006C4DBA069002803DA0E
:100D6000404246F00106A061F00701D026F01006CF
:100D70006C2D0BD0682D09D04C2D39D06A2D35D073
:100D8000742D35D07A2D33D016E038E0E1682F4647
:100D900020468847B842054609D16C2F26D04FF42B
:100DA0008060E168064320468847054604E06C2FD2
:100DB0001AD04FF4807006430DB3A5F141001928F5
:100DC00002D8203546F400664A4629462046266069
:100DD0004E46FFF73BFA80B101280BD0F61D26F0F6
:100DE000070000F1080956E74020E4E78020D8E733
:100DF0000020D6E706F104094DE7284652E7206AAD
:100E0000BDE8F09FB01605002DE9F04107461546F4
:100E10000E461020FFF7AEFA04000AD06760C4E95E
:100E2000026500F00DF80168216004600020BDE853
:100E3000F0810120FBE7000000487047080D00200A
:100E400000487047400D002000487047080D002002
:100E5000034640688C46002818BF88423CBF0346C2
:100E60004068F8D318681844884207D00CF1030092
:100E700020F00700001D411A521A0146081D0A60A1
:100E8000FFF7A7BA30B5B0F10A0271F100034FEADB
:100E9000900E4EEA817EB0EB0E0061EB91014FEABD
:100EA000101E4EEA017E10EB0E0041EB11114FEACD
:100EB000102E4EEA016E10EB0E0041EB11214FEAAD
:100EC000104E4EEA014E10EB0E0041EB114140185E
:100ED00041F100014FEAD00040EA41704FEAD101F0
:100EE0004FEA810444EA907410EB800544EB01045E
:100EF0006D1944EB0404521BA3414FF0000348BF9B
:100F00000A3200D530BD401C41F1000130BD2DE951
:100F1000F0470D4699469246044600F124080168C0
:100F2000880604D5E06921F01001216000E001206D
:100F3000A84201DD471B00E00027A1697A1902EBF6
:100F40000900081AA0612078C00602D42046FFF7E5
:100F5000A6FC002608E0D4E901211AF80600904713
:100F6000206A401C761C20624E45F4DB2078C006C7
:100F70000AD52046FFF793FC06E0D4E90121302092
:100F80009047206A401C2062381EA7F10107F4DC5C
:100F900007E0D4E9012118F805009047206A401CB9
:100FA0002062281EA5F10105F3DC2046FFF78DFC29
:100FB0002078000602D50220BDE8F0870120FBE77B
:100FC0002DE9FF4F0C461E464FF0FF378BB0D2E99C
:100FD0000001DDF860800A908A46C1F30A5505B920
:100FE0003D46002108464FF00000BAF1000F00F422
:100FF000400005DA00EB80004FF4400101EA5000A8
:101000004FEA9059B9F1010F00DDB9460A9850EA4C
:101010004A000ED044F61050A5F2FF3545432F1478
:10102000B8F1000F1ED07542291E1EDDC9F1000265
:101030001CE0B8F1010F4FF0000001D0302103E0B7
:10104000F24305E02154401CB042FBDB3046002255
:10105000002121540B99C1F80880C1E900200FB08C
:10106000BDE8F08FBD1B6D1CDEE74A4600DA694221
:1010700006A800F01BFC06AB93E8070003AB83E86F
:10108000070050460A994DF076FB8DE80700A0F561
:1010900000501F3800900398002D0ADD42F21F0116
:1010A0004A460844002303A9039068464DF0E0FD3A
:1010B00009E0A0F500504A461F38002303A9039019
:1010C00068464DF0EAFD8DE807000004000C03D0EF
:1010D0004FF0FF30410800E01046B8F1000F03D098
:1010E0000022009215461EE0751E05D4FFF7CAFEC9
:1010F000303262556D1EF9D5B3460122084302D045
:1011000000227F1C04E02078302801D100227F1EBD
:10111000002A099784D01DE0112D07DAFFF7B2FEEF
:10112000303262556D1C50EA0102F5D1084302D0FD
:101130000098C8B10EE00021681E05E0235C625CE7
:1011400063542254401E491C8142F7DBAB46A81B66
:10115000401E0990002004F80B000B98099AC0F873
:101160000880C0E9002B7AE711264FF0000857E706
:101170002DE9F04F88460446D21D22F0070191B0B8
:10118000D1E90001CDE90A014DF0BEFE02460B98FF
:10119000C00F01D02D2007E02068810701D52B204A
:1011A00002E0202101EAC000032A099001D0072AA9
:1011B00005DB03464146204600F038FB0BE1207872
:1011C000800601D5E06900E00620B8F1650F814690
:1011D00006D0B8F1660F18D0B8F1670F70D131E0C2
:1011E0000020B9F1110F009001DB112301E009F19A
:1011F00001030AAA01A90CA8FFF7E2FEDDE90C70C1
:10120000002609F10105834647E001204B46009086
:101210004FF000470AAA01A90CA8FFF7D1FEDDE9AB
:101220000DB00C995D46002610B909F101000D18AA
:10123000B9EB050003D4C0F1FF3609F10105A5EBB8
:1012400009002BE0B9F1010F01DA4FF0010900208C
:10125000B9F1110F0090484601DD112300E003466B
:101260000AAA01A90CA8FFF7ABFEDDE90C704D46F8
:1012700000268346207800070AD4AB4500DA5D4695
:1012800001A8012D04DD411911F8011C302907D0F6
:101290004F4502DA17F1040F04DA012082460FE00D
:1012A0006D1EEEE7002F02DCED1B3E4403E0781CD0
:1012B000A84200DD7D1CB81B00F1010A4FF0004779
:1012C0002078000703D4AA4501DB4FF0FF3A002144
:1012D000B7F1004F0DF143088DF8431024D00220E0
:1012E0002B23002F01DA7F422D230A21021EA0F1B9
:1012F000010000DC5FB197FBF1FC97FBF1F201FB11
:101300001C7C17460CF1300C08F801CDEEE7A8F173
:10131000010003702188090501D5452100E0652100
:10132000A0F1010800F8011C09980FA9A1EB08071A
:10133000FF1D00B10120411901EBEA70A169384499
:10134000081A401EA0612078C00602D42046FFF78C
:10135000A6FA099828B1D4E901219047206A401CD7
:1013600020622078C00622D52046FFF798FA1EE0BA
:10137000002E04DBB34502DD01A8805D00E03020D3
:10138000D4E901219047206A401C2062761CAAF112
:1013900001005FEA000A0AD100F044FAC06801685F
:1013A000405CD4E901219047206A401C2062281E3D
:1013B000A5F10105DCDC07E0D4E9012118F8010BF7
:1013C0009047206A401C2062381EA7F10107F3DC19
:1013D0002046FFF77AFA032011B041E62DE9F04FDD
:1013E00004460D46D21D22F0070089B0D0E90097CF
:1013F000484639464DF088FD0246F80F01D02D23AE
:1014000007E02068810701D52B2302E0202101EAB3
:10141000C0038DF820300BB1012000E00020032A2A
:10142000824601D0072A04DB2946204600F0FEF957
:101430003FE12078800601D40D2500E0E569C7F37F
:101440000A560D2D49DA00214FEA175B08464FF086
:101450000000002F00F4400007DA00EB80004FF49A
:10146000400100EBD07001EA60008115012901DD27
:101470004FF0FF3100224FEA850CBCF1180F06D364
:101480001346ACF118004FF08052C24003E04FF415
:10149000801323FA0CF30CF10C0CBCF1200F04D3D5
:1014A000ACF1200C09FA0CF001E007FA0CF000296D
:1014B0004FF0004801DD18B90FE00ED140450CD3C4
:1014C00019EB02095F4121B9404502D19F4329EA46
:1014D0000209BBEB175F00D0761C2088000502D5FF
:1014E0007B48784402E07A487844193808AA3023C7
:1014F00002F80A30037C0AF10101002E0AF1020A07
:1015000053546A4602DC4FF0300101E04FF03101E4
:101510004FF001088DF8001002D0A6F2FF3603E06C
:1015200059EA470100D06B4E002D02DC21780907F3
:1015300004D54FF002082E218DF80110C446002179
:101540000BE0C7F303433F01C35C491C6D1E02F867
:101550000830052908F1010801DA002DF1DC00212D
:101560000CE000EB1973491C1B786D1E082902F86A
:1015700008304FEA091908F1010801DA002DF0DC02
:1015800021688B0602D516E0A8F10108E04505DDCB
:1015900002EB080313F8013C302BF5D0B8F1000F33
:1015A00009DD02EB080313F8013C2E2B03D10907D8
:1015B00001D4A8F10108002D05DD3E2102F8081034
:1015C0006D1E08F10108407C002E02F8080008F1A9
:1015D000010804DA2D20764202F8080002E02B20F0
:1015E00002F808000A214FF47A70864208F10108D7
:1015F0000BDB96FBF0F3303302F8083096FBF0F388
:1016000008F1010800FB136601E0642E0CDB642086
:1016100096FBF0F3303302F8083096FBF0F308F154
:10162000010800FB136601E00A2E06DB96FBF1F0D1
:10163000303002F8080008F1010896FBF1F001FBD8
:101640001060303002F80800A16908F1010808EBC9
:10165000050202EB0A00081AA0612078C00602D435
:101660002046FFF71CF9216A08AE01EB0A00206250
:1016700004E0D4E9012116F8010B9047BAF1010A00
:10168000F7D22078C00602D52046FFF708F96E464B
:1016900009E016F8010B3E280FD0D4E9012190474C
:1016A000206A401C2062B8F10108F2D22046FFF700
:1016B0000CF909B00320BDE8F08F206A28442062AD
:1016C00003E0D4E90121302090476D1EEBD3F8E709
:1016D000820E050002FCFFFF10B5436913B1AFF3A2
:1016E000008001E0FFF714F9012010BD127800F12D
:1016F00024010A7000224A700122EDE711684FF0C0
:10170000FF32E9E710B5436913B1AFF3008001E0A0
:10171000FFF798F9012010BD128800F1240182849E
:101720000022C2840122EDE711684FF0FF32E9E7A1
:101730002DE9F04116460C46054600F06BF80368AB
:1017400093F80101012807D0FF2C12D8185D80B151
:1017500001202C70BDE8F081D3F807013246214604
:1017600003F20713C7182846BC46BDE8F041002322
:1017700060474FF0FF30EDE72DE9F0410646FFF7F7
:101780005FFB8046454613E016B1E068B0420ED1DB
:1017900020682860D4E90101D8F800708847204605
:1017A000FEF717FED8F80000B842EBD100E025465E
:1017B0002C68002CE8D1BDE8F08110B500F0F6F8F7
:1017C000BDE8104000F0EDB870477546FFF734FBF8
:1017D000AE4605006946534620F00700854618B01E
:1017E00020B5FEF7B5FDBDE820404FF000064FF0F4
:1017F00000074FF000084FF0000BAC46ACE8C00902
:10180000ACE8C009ACE8C009ACE8C00921F00701A8
:101810008D46704710B500F005F8001D10BD00BFE3
:1018200061FE040000487047280D00202DE9F041BA
:101830001F46044603260168072A01F4006004DB02
:1018400008B116A505E016A503E008B115A500E04E
:1018500015A521F010002060A069C01EA0610FB185
:10186000401EA0612046FFF71AF84FB1D4E90121CC
:1018700038469047206A401C2062C01C206206E067
:10188000206AFAE7D4E9012115F8010B9047761E8A
:10189000F8D22046FFF719F8BDE8F0814E414E001E
:1018A0006E616E00494E4600696E66002DE9F04794
:1018B000814616468AB0354878440DC88DE80D003B
:1018C00032487844801C03AC0DC884E80D0041F612
:1018D0009B300844372190FBF1F290FBF1F5A5F124
:1018E000800501FB12041B3C02D56442012000E08C
:1018F0000020DFF898A080460027FA44AAF1BE0A2B
:101900000EE0E0070AD03246684607EB47010123A4
:101910000AEB81014DF0C1F98DE8070064107F1CCE
:10192000002CEED1194F7F44AE3F19E0E80715D0E7
:1019300007EB04100DF1180A90E80E008AE80E007B
:10194000C068F04201D1981908903246012306A9D7
:1019500003A84DF0A2F903AB83E807006D10641CE7
:10196000002DE3D14FF0010332466946B8F1000F74
:1019700003A802D04DF07CF901E04DF08EF9C9E9E1
:101980000001C9F808200AB0BDE8F0873C0B05004B
:1019900010B50446AFF300802046BDE81040FEF7C6
:1019A000C3BC002801D000F029B8704710B5012849
:1019B00005D0002103A000F027F8012010BD09A1E7
:1019C000F8E7000053494752544D454D3A204F75B2
:1019D00074206F662068656170206D656D6F727927
:1019E000000000003A2048656170206D656D6F72DF
:1019F0007920636F727275707465640001491820F4
:101A0000ABBEFEE72600020070B505460C460A2074
:101A100000E06D1C00F052F835B128780028F8D1AC
:101A200002E0641C00F04AF814B120780028F8D1D4
:101A3000BDE870400A2000F041B80000000000003E
:101A400030B44FF0013C50F8042B51F8043BCCFA71
:101A500052F4D51A20D1FCB950F8042B51F8043BAC
:101A6000CCFA52F4D51A17D1B4B950F8042B51F866
:101A7000043BCCFA52F4D51A0ED16CB950F8042BB1
:101A800051F8043BCCFA52F4D51A05D1002CDAD027
:101A900030BC4FF00000704729BAB1FA81F111F063
:101AA0001801D1F120008440F2D1CA40CB4012F09D
:101AB000FF0213F0FF0330BCD01A704708B5694627
:101AC0008DF800000320ABBE08BD000080B582B0D9
:101AD00046F20040C4F2020000680001002837D539
:101AE000FFE746F20841C4F20201086840F00060D6
:101AF000086046F25841C4F20201086820F0010073
:101B00000860FFE746F25840C4F202000068C007D0
:101B100008B1FFE7F6E70020019043F27850C2F2E7
:101B20000000006801A94BF04DFBFFE7019860B190
:101B3000FFE74EF60451CEF200014FF080500860EE
:101B4000BFF34F8FBFF36F8F00E0FFE7FFE7FFE7C3
:101B500002B080BD80B584B042F20801C4F2010138
:101B6000086820F4807008600023039343F2C85093
:101B7000C2F200000068694603AA4A600B600122B5
:101B800019464BF005FE46F20C41C4F2020108680A
:101B900040F020000860FFE7039860B1FFE74EF6D1
:101BA0000451CEF200014FF080500860BFF34F8F18
:101BB000BFF36F8F00E0FFE7FFE704B080BD0000D8
:101BC00080B582B043F61440C4F201000068C0053D
:101BD000002825D5FFE70020019042F67850C2F298
:101BE0000000006801A94BF0EDFAFFE7019860B131
:101BF000FFE74EF60451CEF200014FF0805008602E
:101C0000BFF34F8FBFF36F8F00E0FFE7FFE743F6AF
:101C10001441C4F20101086840F480700860FFE7D5
:101C200002B080BD82B001900020009043F60040D9
:101C3000C4F20100009001988079002859D0FFE794
:101C40000198026843F60041C4F20101086890431C
:101C500008600198026843F60441C4F20101086873
:101C60009043086001980179009808440090019819
:101C7000026800990868104308600198026843F6FA
:101C80000841C4F2010108689043086001980268A5
:101C900043F60C41C4F201010868904308600198C2
:101CA0004079102813D1FFE70198026843F60841F4
:101CB000C4F201010868104308600198026843F605
:101CC0000C41C4F2010108681043086010E043F6BB
:101CD0000040C4F201000090019841790098084446
:101CE0000090019802680099086810430860FFE7B7
:101CF0000BE001980179009808440090019802686F
:101D00000099086890430860FFE702B07047000040
:101D100085B0049003910020029001900090029001
:101D2000FFE702980F286CD8FFE70299012088404E
:101D3000019003980068019908400090009801996B
:101D4000884259D1FFE702984100032000FA01F2CE
:101D50000499086890430860039800790299490043
:101D600000FA01F2049908681043086003980079AA
:101D7000012805D0FFE703980079022827D1FFE763
:101D800002984100032000FA01F204998868904308
:101D90008860039840790299490000FA01F2049999
:101DA000886810438860BDF80810012000FA01F22D
:101DB000049948689043486003988079BDF80810FA
:101DC000884082B20499486810434860FFE7BDF834
:101DD00008004100032000FA01F20499C86890430A
:101DE000C8600398C0790299490000FA01F2049989
:101DF000C8681043C860FFE7FFE70298013002900F
:101E00008FE705B07047000084B00390ADF80A106A
:101E10008DF809200020019000909DF80900BDF880
:101E20000A1001F00701890088400190BDF80A30CE
:101E300003F0070081000F2000FA01F203986FF011
:101E4000030101EA53010144086A904308620398C0
:101E5000BDF80A1047F6FC7202EA51010844006A14
:101E600001990843009000980399BDF80A3002EAEE
:101E700053021144086204B07047000082B0019020
:101E8000ADF80210BDF8020000040199886102B0AB
:101E90007047000082B00190ADF80210BDF802005A
:101EA0000199886102B0704782B0019000208DF8DE
:101EB00003008DF802000F208DF801000198C07812
:101EC000002846D0FFE74EF60C50CEF20000006826
:101ED000C043C0F302208DF803009DF80300C0F159
:101EE00004008DF802009DF801009DF80310C84021
:101EF0008DF80100019840789DF8021088408DF817
:101F00000300019880789DF8011001409DF80300BE
:101F100008438DF803009DF8030000018DF80300CD
:101F20009DF80300019909784EF20042CEF20002BA
:101F300088540198027802F01F01012088404EF277
:101F40000011CEF2000141EAD20121F00301086044
:101F50000FE00198027802F01F01012088404EF244
:101F60008011CEF2000141EAD20121F003010860A4
:101F7000FFE702B070470000000000000000000012
:101F8000EFF30980BFF36F8F154B1A681EF0100F27
:101F900008BF20ED108A20E9F04F10602DE90900FC
:101FA0004FF0BF0080F31188BFF34F8FBFF36F8FE7
:101FB0004AF090FD4FF0000080F31188BDE8090061
:101FC00019680868B0E8F04F1EF0100F08BFB0ECB9
:101FD000108A80F30988BFF36F8F704700BF00BF7E
:101FE000FC62012082B001908DF803109DF803007F
:101FF00048B1FFE7019A43F63001C4F202010868D4
:102000001043086008E0019A43F63001C4F202016F
:10201000086890430860FFE702B0704782B0019003
:102020008DF803109DF8030048B1FFE7019A43F6CD
:102030004001C4F2020108681043086008E0019AF8
:1020400043F64001C4F20201086890430860FFE7CC
:1020500002B0704782B001908DF803109DF8030024
:1020600048B1FFE7019A43F64401C4F2020108684F
:102070001043086008E0019A43F64401C4F20201EB
:10208000086890430860FFE702B0704788B0079087
:102090000021069105910491022003900291019084
:1020A00043F60800C4F20200006800F00C0006903D
:1020B0000698009040B1FFE7009804280BD0FFE796
:1020C000009808280ED050E0079942F20040C0F274
:1020D000F400086050E0079941F20020C0F27A0055
:1020E000086049E043F60400C4F202000168C1F34D
:1020F00080510291006800F03F000190029888B181
:10210000FFE7019941F20020C0F27A00B0FBF1F044
:1021100043F60401C4F202010968C1F3881148437F
:10212000049010E0019942F20040C0F2F400B0FBCC
:10213000F1F043F60401C4F202010968C1F3881109
:1021400048430490FFE743F60400C4F2020000682D
:1021500000F44031022000EBD13003900498039941
:10216000B0FBF1F00799086006E0079942F20040E1
:10217000C0F2F4000860FFE743F60801C4F2020170
:10218000086800F0F0000690069800090690069A8C
:1021900042F23040C0F60500825C0592079B1A6847
:1021A000DDF814C022FA0CF25A600A6802F4E05218
:1021B0000692069A920A0692069A825C0592079BFC
:1021C0005A68DDF814C022FA0CF29A60096801F42A
:1021D000604106910699490B06910699405C05906D
:1021E00007994868059AD040C86008B07047000059
:1021F00081B08DF803009DF803006021C4F24721EF
:10220000086001B07047000084B0DDF810C0039092
:102210000291019200930298019940EA811000997D
:10222000C9034FF6FF729143A1F58031084303992A
:102230000843049940EA016043F60401C4F2020134
:10224000086004B07047000082B001908DF8031060
:102250009DF8030030B1FFE70199088840F0400085
:10226000088005E00199088820F040000880FFE719
:1022700002B0704782B00190ADF802108DF80120D5
:102280009DF8010038B1FFE7BDF802200199888868
:102290001043888006E0BDF80220019988889043A9
:1022A0008880FFE702B0704783B002900191002060
:1022B000ADF8020002980088ADF80200BDF80200F7
:1022C00000F44150ADF80200019908884A88104393
:1022D0008A881043CA8810430A8910434A891043E8
:1022E0008A891043C9890143BDF802000843ADF84B
:1022F0000200BDF80200029908800299888B20F440
:10230000006088830198008A0299088203B07047B0
:10231000074B19680868B0E8F04F80F30988BFF3ED
:102320006F8F4FF0000080F31188704700BF00BF2F
:10233000FC62012082B08DF807008DF806100020A5
:1023400000909DF8060000F0030081000F208840F7
:102350000090009B9DF8060000F0FC0143F6080287
:10236000C4F201028858984388509DF807109DF8E0
:10237000060000F003039B0001FA03F300F0FC01E8
:1023800088581843885002B07047000043F6400157
:10239000C4F20201086840F08050086047F2000172
:1023A000C4F20001086840F44040086043F60801A8
:1023B000C4F202010868086008680860086840F410
:1023C0008050086043F60401C4F2020146F2104056
:1023D000C0F20170086043F60001C4F2020108680F
:1023E00040F080700860FFE743F60000C4F202008E
:1023F00000688001002801D4FFE7F5E743F60041BB
:10240000C4F2020140F20270086043F60801C4F20F
:102410000201086820F003000860086840F002002C
:102420000860FFE743F60800C4F20200006800F00D
:102430000C00082801D0FFE7F4E7704780B582B0B0
:102440004FF0BF0080F31188BFF36F8FBFF34F8F42
:1024500000904BF0E1FA40B1FFE74EF60451CEF2A6
:1024600000014FF08050086000E0FFE701203AF0E3
:1024700091FD00200190019880F3118802B080BD89
:1024800086B00021059104910220039002910190F1
:1024900043F60800C4F20200006800F00C0005904A
:1024A0000598009040B1FFE7009804280ED0FFE7A0
:1024B0000098082814D048E040F2BC51C2F2000154
:1024C00042F20040C0F2F400086048E040F2BC5123
:1024D000C2F2000141F20020C0F27A0008603EE042
:1024E00043F60400C4F202000168C1F38051029176
:1024F000006800F03F000190029888B9FFE7019959
:1025000042F20040C0F2F400B0FBF1F043F60401E7
:10251000C4F202010968C1F3881148430490FFE73F
:1025200043F60400C4F20200006800F440310220C7
:1025300000EBD130039004980399B0FBF1F040F226
:10254000BC51C2F20001086009E040F2BC51C2F285
:10255000000142F20040C0F2F4000860FFE743F6D9
:102560000800C4F202000068C0B2010942F2204033
:10257000C0F60500405C0590059A40F2BC51C2F2DD
:1025800000010868D040086006B0704780B54EF67C
:102590008851CEF20001086840F47000086043F6EC
:1025A0000002C4F20202106840F00100106043F61D
:1025B0000801C4F202010020086011684FF6FF73A1
:1025C000CFF6F6631940116043F60403C4F2020328
:1025D00043F21001C2F200411960116821F4802118
:1025E000116043F60C01C4F202010860FFF7CEFE51
:1025F0004EF60851CEF200014FF00060086080BD39
:1026000082B001908DF803109DF8030030B1FFE710
:102610000199088840F00100088005E001990888C8
:1026200020F001000880FFE702B0704784B00390FB
:1026300002910020ADF80600ADF80400ADF80200EC
:102640000399088C20F4807008840398008CADF8FE
:10265000040003988088ADF802000398808BADF8E1
:102660000600BDF8060020F07000ADF80600BDF8C9
:10267000060020F00300ADF8060002980188BDF8BE
:1026800006000843ADF80600BDF8040020F4007011
:10269000ADF8040002988189BDF8040040EA0120E9
:1026A000ADF8040002984188BDF8040040EA01201A
:1026B000ADF8040003980021C4F20101884208D05B
:1026C000FFE7039840F20041C4F20101884239D18A
:1026D000FFE7BDF8040020F40060ADF804000298A4
:1026E000C189BDF8040040EA0120ADF80400BDF83E
:1026F000040020F48060ADF8040002988188BDF8E1
:10270000040040EA0120ADF80400BDF8020020F406
:102710008050ADF80200BDF8020020F40050ADF882
:1027200002000298018ABDF8020040EA0110ADF8EB
:1027300002000298418ABDF8020040EA0110ADF89B
:102740000200FFE7BDF8020003998880BDF806008B
:1027500003998883029880680399C863BDF80400D0
:102760000399088404B0704782B00190ADF802105C
:102770000020ADF800000198808BADF80000BDF896
:10278000000020F00800ADF80000BDF80210BDF810
:1027900000000843ADF80000BDF8000001998883EF
:1027A00002B0704782B00190009100980199C8630F
:1027B00002B0704783B0029001910020ADF8020092
:1027C00002980088ADF8020002980021C4F20101CD
:1027D000884225D0FFE7029840F20041C4F201018F
:1027E00088421DD0FFE70298B0F1804F18D0FFE774
:1027F000029840F20041C4F20001884210D0FFE785
:10280000029840F60001C4F20001884208D0FFE7B8
:10281000029840F60041C4F2000188420ED1FFE761
:10282000BDF8020020F07000ADF802000198418868
:10283000BDF802000843ADF80200FFE7029841F23C
:102840000001C4F20001884216D0FFE7029841F26D
:102850000041C4F2000188420ED0FFE7BDF802003B
:1028600020F44070ADF8020001980189BDF8020023
:102870000843ADF80200FFE7BDF8020002990880A6
:10288000019840680299C8620198008802990885F9
:1028900002980021C4F20101884208D0FFE70298A3
:1028A00040F20041C4F20101884205D1FFE70198DE
:1028B000807A02990886FFE702990120888203B096
:1028C0007047000082B001908DF803109DF803005E
:1028D00030B1FFE70199888940F40050888105E014
:1028E0000199888920F400508881FFE702B0704781
:1028F00082B00190ADF8021000208DF80100BDF803
:102900000200B0F5007F01D1FFE7FFE701980088E2
:10291000BDF802100840000420B1FFE701208DF847
:10292000010003E000208DF80100FFE79DF80100A1
:1029300002B0704780B58AB00990089100200790D6
:102940000690059004900898808908B1FFE7FFE79A
:102950000998008A0790079820F44050079008983B
:10296000C188079808430790079809990882099831
:1029700080890790079841F20C6188430790089975
:1029800088880A89104349890143079808430790BA
:102990000798099988810998808A0790079820F4F8
:1029A0004070079008988189079808430790079816
:1029B000099988826846FFF769FB099841F200018E
:1029C000C4F20101884208D0FFE7099841F20041B2
:1029D000C4F20101884203D1FFE70398069002E0A8
:1029E00002980690FFE709988089000400280AD51C
:1029F000FFE7069819214843089909684900B0FB88
:102A0000F1F0059009E006981921484308990968F2
:102A10008900B0FBF1F00590FFE7059848F21F51DF
:102A2000C5F2EB11A0FB01016FF00F0000EA5100AD
:102A30000790059A07980009642100FB1120049073
:102A4000099880890004002810D5FFE704993220F6
:102A500000EBC10048F21F51C5F2EB11A0FB0110C1
:102A6000C0F342110798084307900FE00499322001
:102A700000EB011048F21F51C5F2EB11A0FB011051
:102A8000C0F34311079808430790FFE70798099997
:102A900008810AB080BD000082B00190ADF802103C
:102AA000BDF802006FF35F200199888002B0704783
:102AB00080B504F041F880BD80B504F053F804F00F
:102AC00087F804F091F804F0A5F880BD80B504F013
:102AD00013F804F05DF880BD80B582B001900091DC
:102AE00001980099FDF79DFD02B080BD80B586B0CC
:102AF000DDF828C0DDF824C0DDF820C00590049181
:102B00000392029305980499039A029BDDF820C072
:102B1000EE46CEF800C000F00FF905980499039A2C
:102B2000099B00F057F8049800680A99884204DA73
:102B3000FFE704980068019002E00A980190FFE71F
:102B400001980499086006B080BD000086B0059029
:102B5000049101200390FFE703980499884236DA34
:102B6000FFE70598039950F821000190039802901F
:102B7000FFE702990020012900900DDBFFE7019992
:102B80000598029A00EB820050F8042C0020914234
:102B9000B8BF01200090FFE70098C00768B1FFE7C9
:102BA0000599029A01EB820050F8040C41F82200CA
:102BB000FFE7029801380290DBE701980599029A35
:102BC00041F82200FFE7039801300390C4E706B004
:102BD0007047000080B58AB009900891079206936B
:102BE00007980999089A126800F05CF84FF0FF30D6
:102BF0000590FFE705980899096888424ADAFFE7D7
:102C000008980068039005980130089908600598B5
:102C100001300490FFE704980399884235DAFFE712
:102C20000998049950F8210001900598013020B9C5
:102C3000FFE74FF0FF30009005E00998059950F844
:102C400021000090FFE701980099401A0290029835
:102C50000699884206DCFFE70298069949428842B5
:102C60000EDAFFE70999049851F82000DDF820C03A
:102C7000DCF80020531CCCF8003041F82200FFE7BC
:102C8000FFE7049801300490C5E7FFE7059801309D
:102C90000590AFE7099808990968FFF757FF0AB050
:102CA00080BD000087B0069005910492012003903A
:102CB000FFE70398049988423BDAFFE705980399F8
:102CC00050F82100019003980290FFE7029900203C
:102CD0000129009012DBFFE70698019950F82110B6
:102CE000059A029B02EB830252F8042C50F8222032
:102CF00000209142C8BF01200090FFE70098C00764
:102D000068B1FFE70599029A01EB820050F8040CC4
:102D100041F82200FFE7029801380290D6E70198B7
:102D20000599029A41F82200FFE7039801300390C9
:102D3000BFE707B07047000087B0DDF81CC0069001
:102D400005910492039301200290059900200860E8
:102D5000FFE7029803990139884261DAFFE7049896
:102D6000029950F821000799884254DDFFE7049842
:102D7000029A00EB820150F8220051F8041C8842AC
:102D800049DDFFE701200190FFE702980199014426
:102D9000039A0020914200900EDAFFE70499029A0C
:102DA00051F82200019B1A4451F82210401AB0FA3F
:102DB00080F040090090FFE70098C00720B1FFE7CE
:102DC000019801300190E0E70499029A51F822003D
:102DD000019B1A4451F82210884216DDFFE705983E
:102DE00000680E2811DCFFE702980699DDF814C090
:102DF000DCF80020531CCCF8003041F82200019888
:102E0000029908440130029004E0019902980844B4
:102E10000290FFE703E0029801300290FFE798E795
:102E200007B0704780B5D2B0DDF858C1DDF854C1A5
:102E3000DDF850C1519050914F924E9300204D902B
:102E40004B90FFE74B98509988420DDAFFE7519875
:102E50004B9903F027FE01684D9808444D90FFE719
:102E60004B9801304B90EDE74D985099B0FBF1F045
:102E70004D9000204B90FFE74B985099884213DA11
:102E8000FFE751984B9903F00DFE00684D99401AE9
:102E90004B9A40F62461C2F2000141F82200FFE79C
:102EA0004B9801304B90E7E700204B90FFE74B98A1
:102EB000B0F5F87F1EDAFFE74B9840F62461C2F2C6
:102EC000000101EB800251F82000D2F804C09368A1
:102ED000D26860441844104405900598C21700EB6E
:102EE000927080104B9A41F82200FFE74B98013016
:102EF0004B90DCE700204B90FFE74B98B0F5F77F55
:102F000016DCFFE74B9A40F62461C2F2000101EBA8
:102F10008200406851F82210401A41F6C451C2F2B2
:102F2000000141F82200FFE74B9801304B90E4E7A5
:102F300000204B90FFE74B98B0F5F77F15DAFFE7DD
:102F40004B9A41F6C451C2F2000101EB820351F8E1
:102F500022005B68184400EBD070401041F822005A
:102F6000FFE74B9801304B90E5E700204990FFE7E1
:102F70004998B0F5F47F39DCFFE700204890499884
:102F80004B90FFE74B9849990531884218DAFFE7E3
:102F90004B9941F6C450C2F2000050F82100499A02
:102FA0008A1A42F2F841C0F6050131F81210489A27
:102FB00000FB11204890FFE74B9801304B90E1E770
:102FC000489849F6ED31C7F25F2150FB01F14812F4
:102FD00000EBD170499A41F6C451C2F2000141F8A8
:102FE0002200FFE7499801304990C1E70020449052
:102FF0004B90FFE74B98B0F5F77F26DCFFE74B9946
:1030000041F6C450C2F2000050F82100012809DB4B
:10301000FFE74B9941F6C450C2F2000050F821007E
:10302000049009E04B9941F6C450C2F2000050F8F8
:10303000210040420490FFE70499449808444490DA
:10304000FFE74B9801304B90D4E7449845F2677105
:10305000C2F2191150FB01F1881100EBD1704490BC
:103060004498694605228A6008224A60086041F651
:10307000C452C2F2000215A843A940F2EF13FFF7B1
:1030800035FD00201490439802282ADBFFE7012039
:103090004B90FFE74B984399884211DAFFE74B9A30
:1030A00015A800EB820150F8220051F8041C411AC7
:1030B000149808441490FFE74B9801304B90E9E7CF
:1030C00014984399013990FBF1F01490149941F24E
:1030D000707090FBF1F055990860569901200870C6
:1030E00009E055994FF61940CFF6FF7008605699E0
:1030F00000200870FFE700204B90FFE74B984399B2
:1031000088420DDAFFE74B9A15A850F822000230EA
:1031100033A941F82200FFE74B9801304B90EDE7CF
:1031200000204B90FFE74B98509988421DDAFFE74B
:1031300051984B9903F0B6FC00684B9A40F6246115
:10314000C2F2000141F822004F984B9903F0AAFC0B
:1031500000684B9A41F2F451C2F2000141F822009A
:10316000FFE74B9801304B90DDE7002046904B90F5
:10317000FFE74B984399884250DAFFE701204C90D3
:103180004B9933A850F8210047904FF0807042903F
:1031900047980530B0F5F77F3BDCFFE747980538E7
:1031A000012836DBFFE7479805384990FFE7499843
:1031B00047990531884224DAFFE7499940F62460AF
:1031C000C2F2000050F821004299884214DAFFE769
:1031D0004C9818B1FFE700204C90FFE7499940F662
:1031E0002460C2F2000050F82100429049984B9AA6
:1031F00024A941F82200FFE7FFE7499801304990F0
:10320000D5E74C9820B9FFE7469801304690FFE794
:10321000FFE7FFE74B9801304B90AAE7469801285B
:103220000ADCFFE74E994FF61940CFF6FF700860B1
:1032300054990020087085E100204B90FFE74B98DF
:10324000B0F5F87F33DAFFE74B9A40F62461C2F21B
:10325000000101EB820351F82200D3F804E0D3F817
:1032600008C0DB68704460441844C31700EB9370D7
:10327000801041F822004B9A41F2F451C2F2000151
:1032800001EB820351F82200D3F804E0D3F808C020
:10329000DB68704460441844C31700EB93708010DF
:1032A00041F82200FFE74B9801304B90C7E7002020
:1032B00007904A904B90FFE74B9804280ADCFFE701
:1032C0004B9A08A9002041F82200FFE74B980130F3
:1032D0004B90F1E700204B90FFE74B9846998842CE
:1032E00017DAFFE74B9924A850F82100B0F5FA7FD0
:1032F0000ADDFFE74E994FF61940CFF6FF700860E0
:103300005499002008701DE1FFE74B9801304B9065
:10331000E3E700204B90FFE74B984699013988423C
:1033200080F2CF80FFE74FF07F4010900F904B9AD4
:1033300024A901EB8200406851F82210401A0B28A2
:10334000C0F2BA80FFE74B9924A850F821004990B9
:10335000FFE749984B9A24A901EB8201496888420A
:1033600031DAFFE7499940F62460C2F2000050F8D4
:1033700021000F9988420BDDFFE7499940F6246050
:10338000C2F2000050F821000F9049980D90FFE71D
:10339000499941F2F450C2F2000050F8210010990E
:1033A00088420BDDFFE7499941F2F450C2F2000078
:1033B00050F82100109049980E90FFE7FFE74998D8
:1033C00001304990C5E74B9B24A9039101EB830091
:1033D000426841F2F450C2F2000050F8222051F845
:1033E00023C050F82C30D21A0E9BA3EB0C035A4387
:1033F00013924B9A01EB820C51F822E050F82E20E8
:10340000139BDCF804C0ACEB0E0C93FBFCF31A44EA
:1034100013920E9A50F82200139A801A13904B9B25
:1034200001EB8300426840F62460C2F2000050F8CD
:10343000222051F823C050F82C30D21A0D9BA3EB58
:103440000C035A4312924B9A01EB820351F822C0AB
:1034500050F82C10129A5B68A3EB0C0392FBF3F26A
:10346000114412910E9950F821001299401A1290AD
:1034700013980F994843C011069012981099484329
:10348000C01105900598012815DBFFE74A9804282C
:1034900011DCFFE7069870B1FFE706986421484306
:1034A000059990FBF1F04A9A08A941F822004A9840
:1034B00001304A90FFE7FFE7FFE74B9801304B9060
:1034C0002AE74A9908A8FFF741FB4A9800EBD07019
:1034D00040104590459802280EDBFFE7459A08A961
:1034E00001EB820050F8040C51F82210084400EB64
:1034F000D0704010079005E0459908A850F82100C9
:103500000790FFE70798032812DBFFE70798B72823
:103510000EDCFFE7079942F24040C0F60500405C30
:10352000119011984E99086054990120087009E093
:103530004E994FF61940CFF6FF700860549900205D
:103540000870FFE752B080BD80B582B00190009155
:1035500001980099FFF7C0FA02B080BD80B584B031
:10356000039002910192029B188899881A899B897D
:10357000DDF804C0EE46CEF800C002F051FF03981B
:1035800019F0D2FA04B080BD81B08DF803009DF926
:10359000030000280ED4FFE79DF9031001F01F027D
:1035A000012090404A094EF20011CEF2000141F88C
:1035B0002200FFE701B0704781B08DF803009DF94C
:1035C000030000280ED4FFE79DF9031001F01F024D
:1035D000012090404A094EF20011CEF2000141F85C
:1035E0002200FFE701B0704782B08DF8070000911C
:1035F0009DF9070000280AD4FFE7009800019DF913
:1036000007104EF20042CEF2000288540BE0009800
:1036100000019DF8071001F00F014EF61452CEF292
:1036200000028854FFE702B07047000082B08DF8B6
:10363000070000919DF9070000280AD4FFE70098D1
:1036400000019DF907104EF20042CEF200028854AC
:103650000BE0009800019DF8071001F00F014EF6F5
:103660001452CEF200028854FFE702B07047000007
:1036700080B582B0019000910198009936F0AAFCC3
:103680000198009936F0B4FC0198009936F0CCFC12
:103690000198009936F066FC02B080BD80B584B018
:1036A00003900291019203980299019A32F00EFA66
:1036B00003980299019A32F0D9F904B080BD000054
:1036C00080B5F0204FF4A07103F054F880BD0000E5
:1036D00080B586B0059005990491086901300861AC
:1036E0003C281AD3FFE7049800210161C168013129
:1036F000C160C0683C280FD3FFE704980021C16077
:1037000081680131816080680C2804D3FFE7049947
:1037100000208860FFE7FFE7FFE7049A42F2885045
:10372000C2F20000016810681369EC466FF00102F4
:103730000392CCF804206FF004020292CCF800202F
:1037400028224AF07FFE049B029ADDF80CE042F248
:103750008450C2F2000001681868DB68EC46CCF8BF
:1037600004E0CCF800201C224AF06CFE049B029A74
:10377000DDF80CE042F28C50C2F2000001681868DB
:103780009B6803EB8303EC46CCF804E0CCF8002004
:1037900010224AF057FE06B080BD000080B5B0B0E0
:1037A0002F902F980F9043F2C050C2F20000006893
:1037B00034F050FA0F9A10601068D188928831F076
:1037C000D5FF0F98006808210D9134F03DFB0F984C
:1037D000006866210022129232F046F80F980068C5
:1037E000019018F0DDFC129A014601982D919DF888
:1037F000B6108DF8BA10BDF8B410ADF8B8109DF839
:10380000BA108DF8B210BDF8B810ADF8B0102C9900
:1038100031F0FCFF0F98129A006847F6FF7132F002
:1038200065F90F98129A006809216FF01D0329F0BD
:103830004FFA0F9800680121109134F0D3FA0F98D5
:1038400000683D2134F062FB0F9800680521089163
:1038500034F0E2FA0F98006840F20061C2F2000111
:1038600034F02AFB0F98129900683C2234F000FBD8
:103870000F9800684FF4B47134F0A4FA0F98006800
:103880004FF4877134F008FB4EF2C000C2F2000022
:10389000039035F041FF03984AF6E471C0F6050144
:1038A00036F028FD0C20029032F00CFF0146039800
:1038B0002A919DF8AA108DF8AE10BDF8A810ADF8A9
:1038C000AC109DF8AE108DF8A610BDF8AC10ADF898
:1038D000A410299936F0F2FC029832F0F3FE01466A
:1038E000039827919DF89E108DF8A210BDF89C10AA
:1038F000ADF8A0109DF8A2108DF89A10BDF8A01098
:10390000ADF89810269936F097FA03980D9936F08D
:1039100085FA03980221049136F0AAFA03990F98C8
:1039200000684FF4003229F011F94EF2D800C2F2CB
:103930000000059035F0F0FE44F29B6018F050FD59
:103940000146059824919DF892108DF89610BDF8C7
:103950009010ADF894109DF896108DF88E10BDF86B
:103960009410ADF88C10239936F066FA059806216C
:103970000A9136F053FA0499059836F079FA0599C8
:103980000F9800684FF4A02229F0E0F84EF2CC0026
:10399000C2F20000079035F0BFFE48F2F630C0F2E8
:1039A0002E0018F01DFD0146079821919DF8861004
:1039B0008DF88A10BDF88410ADF888109DF88A1033
:1039C0008DF88210BDF88810ADF88010209936F07F
:1039D000D9F807980421069136F012F944F26E20C6
:1039E000C0F21F0018F0FCFC014607981E919DF8DC
:1039F0007A108DF87E10BDF87810ADF87C109DF827
:103A00007E108DF87610BDF87C10ADF874101D99FD
:103A100036F06AF90699079836F0B4F907987F21CD
:103A200036F07EF907980F2136F09CF907990F9828
:103A3000129A006829F08AF80F98006827F022FB94
:103A40000899129A034642F28C50C2F20000099083
:103A50000360006831F0D8FF09981099129A006845
:103A600031F0BEFF09990A9809680B9132F02AFEDD
:103A7000129A01460B981B919DF86E108DF87210EA
:103A8000BDF86C10ADF870109DF872108DF86A10CA
:103A9000BDF87010ADF868101A9931F083FF0F98D7
:103AA000006827F0EFFA129A014642F28450C2F2FF
:103AB00000000C9001600068032131F0A5FF0C9814
:103AC000129A0068114631F08BFF0C990D98096825
:103AD0000E9132F0F7FD129A01460E9818919DF85A
:103AE00062108DF86610BDF86010ADF864109DF896
:103AF00066108DF85E10BDF86410ADF85C10179973
:103B000031F050FF0F98006827F0BCFA1099129A14
:103B1000034642F28850C2F2000011900360006830
:103B200031F072FF1198129A0068114631F058FF77
:103B3000119800681390122032F0C4FD129A0146C9
:103B4000139815919DF856108DF85A10BDF8541021
:103B5000ADF858109DF85A108DF85210BDF8581055
:103B6000ADF85010149931F01DFF30B080BD000049
:103B700082B00190ADF80210ADF800200198BDF8B8
:103B80000210C180BDF800108180042181600A21EB
:103B9000C1600021016102B07047000080B588B0AB
:103BA000022001210291FEF71DFA02984FF4807164
:103BB00000910691002101918DF81C108DF81F00D5
:103BC00040F20040C4F2020006A9FEF7A1F80299F3
:103BD0004FF48040FEF73EFA02980821FEF7AAFB58
:103BE000009A0199029804928DF814100C218DF816
:103BF00015108DF8160004A8FEF714F80199029824
:103C000017228DF80C2004228DF80D208DF80E104F
:103C10008DF80F0003A8FEF747F908B080BD00003B
:103C200080B58CB00B900A91099208930020059002
:103C3000ADF81000FFE7BDF8100005283EDCFFE7F7
:103C400040F21040C4F202000068C00500280DD503
:103C5000FFE742F67850C2F2000000684FF4FA71B4
:103C600049F0D6FB08B9FFE73FE0FFE700208DF8F9
:103C70000F00FFE79DF80F00102812DCFFE707A8F0
:103C800006A900F07BF80598013005900798069981
:103C900000F03EF9FFE79DF80F0001308DF80F00AE
:103CA000E8E700200DF11301012200F0A5F8FFE77D
:103CB000BDF810000130ADF81000BCE70B9B09986F
:103CC0000A9ADDF820C06946C1F808C04A60086059
:103CD00042F67C50C2F2000042F29052C2F2000260
:103CE0004FF4FA71FFF79EF8FFE70CB080BD0000BB
:103CF00080B586B042F66850C2F2000000F0B6FF10
:103D000009200290402100F0E3F8002001900DF11D
:103D10001701012200F070F80220802100F0D8F88D
:103D200001990320039000F0D3F80199042000F0DA
:103D3000CFF80199052000F0CBF80199062000F09A
:103D4000C7F808200F2100F0C3F80298039900F08B
:103D5000BFF80A20272100F0BBF80C202421049191
:103D600000F0B6F804990D2000F0B2F810207F2181
:103D700000F0AEF8FFF712FF06B080BD80B584B04A
:103D80000390029101208DF8010007200DF102013E
:103D9000062200F031F801469DF80100084300F0CA
:103DA00001008DF801009DF802009DF803209DF8A8
:103DB0000410000440EA02200844039908609DF8BA
:103DC00005009DF806209DF80710000440EA022037
:103DD000084402990860039908686FF39F400860DF
:103DE000029908686FF39F4008609DF8010000F099
:103DF000010004B080BD000080B586B08DF81700CA
:103E000004918DF80F2042F66850C2F20000029033
:103E100001F056F80298AE2101F0BAF80146029876
:103E20008DF80E109DF8171001F0EAF8014602987F
:103E30008DF80E1001F044F80298AF2101F0A8F8B7
:103E40008DF80E0001208DF80E0000208DF80D0079
:103E5000FFE79DF80D009DF80F10884231DAFFE76B
:103E60009DF80D009DF80F100139884207DAFFE731
:103E700042F66850C2F2000000F0EEFE0AE042F6A0
:103E80006850C2F20000019001F048F8019801F07A
:103E90000DF8FFE704989DF80D10014442F66850B4
:103EA000C2F2000001F044F801469DF80E000840FF
:103EB0008DF80E00FFE79DF80D0001308DF80D0024
:103EC000C7E79DF80E0000F0010006B080BD0000BD
:103ED00080B582B08DF807008DF8061042F6685064
:103EE000C2F20000009000F0EBFF0098AE2101F05C
:103EF0004FF800989DF8071001F082F800989DF89F
:103F0000061001F07DF8009800F0D0FF02B080BDEF
:103F100080B584B003900291039942F29050C2F2AE
:103F200000000022019200F0F5FA019A029942F68F
:103F30007C50C2F2000000F0EDFA04B080BD000039
:103F400080B5C2B043F2C050C2F2000018900068C1
:103F500017F0E6F9014643F26050C2F200001290F9
:103F60000160006800211E9117F030FD12981E9923
:103F700000684FF40032109230F00AFE12981E9939
:103F800000684FF4803230F003FE12981E9A0068E9
:103F9000114617F025FC1298006878213C22009207
:103FA00031F0E4FB12981E9A0068052104916FF02D
:103FB000090328F08DFE12981E990068322209929A
:103FC0006E2317F0B9FC00991298006817F05EFC98
:103FD00012980068019041F67010C0F2190018F0B4
:103FE000FFF91E9A0146019840919DF802118DF843
:103FF0000611BDF80011ADF804119DF806118DF8F9
:10400000FE10BDF80411ADF8FC103F9931F0FEFB35
:1040100012981E9A0068992131F016FD12991E9887
:104020000968029132F04EFB1E9A014602983D91BA
:104030009DF8F6108DF8FA10BDF8F410ADF8F810F0
:104040009DF8FA108DF8F210BDF8F810ADF8F010E8
:104050003C9917F061F81E9A0146129843F25C539E
:10406000C2F20003196000680821039131F00EFDCF
:10407000039912981E9A006831F018FD12981E9A42
:10408000006804211A9131F021FD12981A991E9AA4
:10409000006831F0EBFC1298006833F0DBFD1E99EC
:1040A000024643F25850C2F20000079002600068D6
:1040B00033F0CAFE0798006864210A22139231F097
:1040C00055FB04990798006833F020FF07980068B3
:1040D00001210B9133F0A0FE07981E9B0068092177
:1040E00019911A4628F0F4FD07981E9A00684AF6BE
:1040F0009C71C0F605010A9131F038FD0798109ABD
:104100001A99006831F03EFC0798006840F2C051EF
:10411000C2F2000133F0D0FE07980B99109A0068A4
:1041200031F072FC07980068059048F2F630C0F252
:104130002E000F9018F054F91E9A014605983A91F6
:104140009DF8EA108DF8EE10BDF8E810ADF8EC100F
:104150009DF8EE108DF8E610BDF8EC10ADF8E41007
:10416000399931F01FFC07990F980968069118F0EA
:1041700037F9109A0146069837919DF8DE108DF8B0
:10418000E210BDF8DC10ADF8E0109DF8E2108DF8FB
:10419000DA10BDF8E010ADF8D810369931F002FC15
:1041A00007990F980968089118F01AF9109A0146B2
:1041B000089834919DF8D2108DF8D610BDF8D01023
:1041C000ADF8D4109DF8D6108DF8CE10BDF8D410EF
:1041D000ADF8CC10339931F0ABFC1298006833F095
:1041E00039FD1A99024643F25450C2F200000E9073
:1041F0000260006833F028FE099A0E98139900684F
:1042000031F0B4FA0E9800680321159133F07EFE68
:104210000B990E98006833F0FFFD0E9819991E9BBC
:1042200000681A4628F054FD0A990E981E9A0068F4
:1042300031F09CFC0E98109A1A99006831F0A2FB9C
:104240000E98006840F2D851C2F2000133F034FEFB
:104250000B990E98109A006831F0D6FB0E990F98C2
:1042600009680C9118F0BCF81E9A01460C9831911F
:104270009DF8C6108DF8CA10BDF8C410ADF8C8106E
:104280009DF8CA108DF8C210BDF8C810ADF8C01066
:10429000309931F087FB0E990F9809680D9118F04D
:1042A0009FF8109A01460D982E919DF8BA108DF83E
:1042B000BE10BDF8B810ADF8BC109DF8BE108DF85A
:1042C000B610BDF8BC10ADF8B4102D9931F06AFBF2
:1042D0000E990F980968119118F082F8109A01460A
:1042E00011982B919DF8AE108DF8B210BDF8AC105E
:1042F000ADF8B0109DF8B2108DF8AA10BDF8B0104E
:10430000ADF8A8102A9931F013FC1298006825F036
:1043100017F815991E9B024643F26450C2F2000042
:104320001790026000681A4628F0D2FC17981E9A6F
:1043300000684AF6C071C0F605011B9131F016FC09
:1043400013981599179A1268149232F00FF91E9A61
:104350000146149828919DF8A2108DF8A610BDF87A
:10436000A010ADF8A4109DF8A6108DF89E10BDF811
:10437000A410ADF89C10279931F0DAFB1599179825
:1043800000681690132032F0F1F81E9A0146169834
:1043900025919DF896108DF89A10BDF89410ADF8FF
:1043A00098109DF89A108DF89210BDF89810ADF8FD
:1043B0009010249931F02AFA17981E9A0068FF216C
:1043C00031F052FA17981E9A006802211C9131F0C0
:1043D0009DFB179800684CF2F651C0F6050126F0D7
:1043E000B9F91898006823F0E9FB239023984CF65C
:1043F000EC51C0F6050124F073F9239806216FF003
:104400001D026FF03B0328F063FC239824F098FF13
:1044100019991A9B024643F26850C2F200001D909F
:10442000026000686FF0050228F052FC1B991D988D
:104430001E9A006831F09AFB1D981E9A00684CF293
:104440000861C0F6050126F0F9F91C991D981E9A1D
:10445000006831F05BFB1D9800681F904CF6FF5020
:10446000C0F29E0017F0BCFF1E9A01461F982191D2
:104470009DF886108DF88A10BDF88410ADF888106C
:104480009DF88A108DF88210BDF88810ADF8801064
:10449000209931F04DFB42B080BD000080B582B064
:1044A000019043F26050C2F20000006843F25C5198
:1044B000C2F200010968019A17F0BAF943F2645098
:1044C000C2F200000068019A4CF20861C0F60501D2
:1044D00026F0B4F902B080BD80B582B0019043F2FD
:1044E0006850C2F200000068019A4CF20861C0F600
:1044F000050126F0A3F902B080BD000080B582B0AE
:10450000019043F2C850C2F20000006848F02AFA55
:1045100002B080BD84B0039002918DF8072003990A
:104520000091B1F8D607B1F8D017884224D1FFE73F
:104530009DF80700C00708B1FFE734E00099029832
:10454000B1F8D42741F82200B1F8D407431CB1F8E0
:10455000D027B3FBF2F000FB1230A1F8D407B1F87A
:10456000D207431CB1F8D027B3FBF2F000FB1230A6
:10457000A1F8D207FFE716E000990298B1F8D42716
:1045800041F82200B1F8D407431CB1F8D027B3FB9F
:10459000F2F000FB1230A1F8D407B1F8D6070130D1
:1045A000A1F8D607FFE704B07047000080B582B0DD
:1045B0000190019800904FF4FA61FCF7D6F800984A
:1045C0004FF4FA71A0F8D0170021A0F8D217A0F884
:1045D000D417A0F8D61702B080BD000081B00090BB
:1045E000009801B07047000080B586B005908DED51
:1045F000020B0598019000F087F801989DED020BE1
:1046000000F006F8019890ED060B06B080BD0000A2
:1046100080B592B011908DED0E0B11980A9090ED2F
:10462000021B90ED040B53EC112B51EC100B02917B
:1046300001904DF06DF8024601980B46029943EC4B
:10464000102B53EC102B4DF017F902460A980392E9
:104650000A46039942EC101B8DED0C0B90ED060BF6
:104660009DED0C1B8DED041B9DED0E1B51EC110BF4
:1046700053EC102B079306924DF07CFC9DED040B40
:1046800041EC110B53EC112B51EC100B4DF0E4FAF3
:10469000069A079B41EC100B51EC100B4DF038F8CB
:1046A00002460A9808920A46089942EC101B80EDCF
:1046B000060B9DED0C0B9FED121B51EC110B53ECF7
:1046C000102B4DF057FC02460A9809920A460999A8
:1046D00042EC111B90ED040B51EC110B53EC102B21
:1046E0004DF0BAFA02460A980B920A460B9942EC30
:1046F000101B80ED040B12B080BD00BF00BF00BFD7
:10470000000000000000F03F80B584B003900398E3
:10471000019090ED000B90ED041B51EC110B53EC4C
:10472000102B4CF0F5FF0246019802920A460299BE
:1047300042EC101B80ED040B04B080BD8AB00990E0
:104740008DED060B8DED041B8DED022B8DED003BE9
:1047500009989DED060B80ED000B9DED040B80ED9F
:10476000020B9DED020B80ED040B9DED000B80ED27
:10477000060B0AB07047000080B501F0A7FC43F6B5
:104780003001C4F20201086840F00200086042F201
:104790000801C4F20101086820F00100086040F23D
:1047A0000042C4F20202106820F00C001060106891
:1047B00040F00C00106043F64402C4F2020210689C
:1047C00040F48070106042F20432C4F201021068BA
:1047D00040F480301060106840F4003010600868C9
:1047E00040F00200086042F20402C4F201021068C4
:1047F00020F480701060086820F40060086042F2C5
:104800001001C4F20101086840F000600860086807
:1048100040F080500860086840F00050086042F2A4
:104820002C01C4F20101086820F47000086042F213
:104830003401C4F20101086820F01F000860086814
:1048400040F00900086080BD80B501F06FFC42F2C5
:104850000801C4F20101086840F48070086008682B
:1048600040F001000860086840F08040086080BDAA
:1048700080B584B00020009016F0F8FA009A014646
:1048800043F26C50C2F200000190016000680921FF
:104890001B2328F01DFA019800684FF4FD61029176
:1048A00008220392172316F01DFC01980299039A1F
:1048B000006816F0F9FA04B080BD000080B586B03B
:1048C00005900491ADF80E20059800900498019091
:1048D000BDF80E00ADF8080043F27450C2F20000BB
:1048E000006869464FF6FF72002348F08DFB06B062
:1048F00080BD000080B582B043F27050C2F200006B
:10490000694648600320086044F62920C0F600008C
:104910004CF22161C0F605014FF40072002348F00B
:10492000A1FE02B080BD000080B543F27850C2F213
:10493000000000684FF6FF7148F06AFD80BD00007E
:1049400080B582B043F63001C4F20201086840F439
:104950008000086046F25841C4F20201086820F065
:1049600001000860FFE746F25840C4F20200006808
:10497000C00708B1FFE7F6E746F25841C4F202016A
:1049800040F25040C0F2026008603B2000900021DD
:104990000191FEF729FE0098FEF7F6FD019A02202C
:1049A0000C2148F089FA019943F27452C2F20002D4
:1049B00010600120032248F07FFA43F27851C2F2DE
:1049C00000010860FFF796FF02B080BD83B002903F
:1049D0000191ADF8022046F25841C4F20201086884
:1049E00020F001000860029846F26042C4F2020220
:1049F0001060019846F26442C4F202021060BDF8F1
:104A0000020046F25C42C4F20202106046F2084222
:104A1000C4F20202106840F074601060086840F050
:104A20000100086003B0704780B584B0FFE743F22F
:104A30007450C2F20000006801A94FF6FF7248F0FE
:104A400039FC01980299BDF80C20FFF7BFFFEEE793
:104A500080B582B0019043F28C50C2F20000006831
:104A6000009043F28850C2F20000006812F04EFB42
:104A7000024600984CF2DF51C0F6050125F0DEFE3B
:104A800002B080BD80B592B043F2C050C2F20000C7
:104A9000006811F03FFE014643F28850C2F2000068
:104AA00008900160006824F04BFC014643F28C50F2
:104AB000C2F2000001900160006828F09DFD01989D
:104AC0000068029048F2F630C0F22E00039017F012
:104AD00087FC0146029810919DF842108DF846100F
:104AE000BDF84010ADF844109DF846108DF83E100A
:104AF000BDF84410ADF83C100F990022079231F038
:104B000017F8089800683C22114630F02FFE0898EC
:104B10000068F521142230F0A5FD0898006887216F
:104B200012F066FC0898079900684FF4877212F03B
:104B300005FB08980799006812F0DCFC08980799B3
:104B400000684FF4403230F023F843F29050C2F244
:104B50000000049034F0E0FD43F27C50C2F200000B
:104B6000059034F0D9FD41F67010C0F2190017F02D
:104B700037FC014604980D919DF836108DF83A10D7
:104B8000BDF83410ADF838109DF83A108DF8321099
:104B9000BDF83810ADF830100C9934F0F3FF0498DC
:104BA000992135F00BF804980A2135F029F803987B
:104BB00017F016FC014605980A919DF82A108DF809
:104BC0002E10BDF82810ADF82C109DF82E108DF881
:104BD0002610BDF82C10ADF82410099934F0D2FF3E
:104BE0000598042135F00CF80598032135F01CFADE
:104BF00004990898079A006827F0A8FF0599089873
:104C000000684FF4003227F0A1FF0898079B006866
:104C100044F65121C0F600012022069227F0E6FE5C
:104C20000699079A0898006830F07AFB12B080BDA8
:104C300080B582B0019043F28850C2F2000000902B
:104C40000068019912F056FC0098006820210022AB
:104C500030F066FB02B080BD81B000900098016822
:104C6000088840F48060088001B0704780B582B049
:104C7000019001980090006845F20041C4F20001E3
:104C8000884209D1FFE743F64001C4F202010868F7
:104C900040F40010086012E00098006845F600013A
:104CA000C4F20001884209D1FFE743F64001C4F293
:104CB0000201086840F480000860FFE7FFE7009801
:104CC00040680021C4F20201884209D1FFE743F69F
:104CD0003001C4F20201086840F00100086012E0EF
:104CE0000098406840F20041C4F20201884209D1B4
:104CF000FFE743F63001C4F20201086840F0020009
:104D00000860FFE7FFE700980268118821F00101C1
:104D1000118042688168D0F80CC04900032303FA6F
:104D200001F14FEA4C0C03FA0CFC4CEA010C11683F
:104D300021EA0C01116042688168D0F80CE04FF064
:104D4000010C0CFA01F10CFA0EFE4EEA010E51684C
:104D500021EA0E01516042688168D0F80CE04900F8
:104D600003FA01F14FEA4E0E03FA0EFE4EEA010E6F
:104D7000916821EA0E01916042688168D0F80CE0E8
:104D8000490003FA01F14FEA4E0E03FA0EF30B430A
:104D9000D1689943D16042688168D0F80CE049003D
:104DA000022303FA01F14FEA4E0E03FA0EFE4EEA19
:104DB000010E116841EA0E01116042688168D0F865
:104DC0000CE00CFA01F10CFA0EFC4CEA010C5168F3
:104DD00041EA0C01516042688168D0F80CC049007A
:104DE00003FA01F14FEA4C0C03FA0CF30B43916800
:104DF000194391604268D168D1604168D0F808C019
:104E00000CF007029300042202FA03F36FF003028E
:104E100002EA5C020A44116A19431162C068092857
:104E200013D1FFE70098006845F60001C4F20001C5
:104E300088420AD1FFE70098818940F20040C4F21D
:104E400002000922FCF7E0FF11E000994868CB68F6
:104E500003F007018A00042101FA02F26FF0030156
:104E600001EA53010144086A10430862FFE7009811
:104E70000268118821F0020111800268918841F0D6
:104E8000320191800268918B6FF3DF319183026868
:104E9000918B41F0FA0191830268332111840168FA
:104EA000088840F00100088002B080BD81B0009009
:104EB00000980168088840F40070088001B07047CD
:104EC00084B00390039801900168088840F48070D2
:104ED00008804CF25030ADF80A00FFE701980068F6
:104EE000818A0020C907009039B9FFE7BDF80A00A0
:104EF000002818BF01200090FFE70098C00730B1DC
:104F0000FFE7BDF80A000138ADF80A00E6E7BDF892
:104F10000A00002818BF012004B0704781B000903B
:104F200000980168088820F48060088001B070470C
:104F300085B004900391049801904CF25030ADF884
:104F40000A00FFE701980068818A002049060029CD
:104F5000009007D4FFE7BDF80A00002818BF012021
:104F60000090FFE70098C00730B1FFE7BDF80A00E6
:104F70000138ADF80A00E5E701980068008A039956
:104F80000870BDF80A00002818BF012005B070475E
:104F900084B003908DF80B10039901914CF25030BE
:104FA000ADF808009DF80B0009680882FFE701983A
:104FB0000068818A002089070029009007D4FFE754
:104FC000BDF80800002818BF01200090FFE70098F6
:104FD000C00730B1FFE7BDF808000138ADF80800A0
:104FE000E5E7BDF8080020B1FFE701980068008BF5
:104FF000FFE7BDF80800002818BF012004B0704783
:1050000085B004908DF80F10049802904CF2503047
:10501000ADF80C00FFE702980068818A00200906BD
:105020000029019007D4FFE7BDF80C00002818BF45
:1050300001200190FFE70198C00730B1FFE7BDF8FC
:105040000C000138ADF80C00E5E702999DF80F005F
:10505000096808824CF25030ADF80C00FFE7029866
:105060000068818A002049070029009007D4FFE7E3
:10507000BDF80C00002818BF01200090FFE7009841
:10508000C00730B1FFE7BDF80C000138ADF80C00E7
:10509000E5E7BDF80C00002818BF012005B07047F7
:1050A00084B0DDF810C00390029101920093039840
:1050B0000299016001994160009981600499C16081
:1050C00004B0704780B500F001F880BD80B586B0AF
:1050D0000020029028F038FC014643F2C050C2F292
:1050E00000000090016000684FF4A071F02230F0E1
:1050F0003DFB0098029B006801211A4627F0E8FD5D
:105100000098029900684FF480322FF041FD4EF272
:10511000E400C2F20000019034F0FEFA40F60F7095
:10512000C0F20F0017F05CF90146019804919DF858
:1051300012108DF81610BDF81010ADF814109DF86F
:1051400016108DF80E10BDF81410ADF80C10039960
:1051500034F064FD0198029934F014FE019802992C
:10516000FEF786FA0198029935F016F80098019931
:10517000029A006827F0EAFC06B080BD80B590B0C6
:1051800000200B900F90FFF75FFB0B980E908DF8AF
:1051900037008DF836008DF835008DF834008DF825
:1051A00033008DF832008DF83100FFE700214FF613
:1051B000FF72084646F0D2FB47F2DC40C2F2000024
:1051C0004FF47A7100F01CFF00F09AFE8DF8300069
:1051D0009DF8300001460A9140B1FFE70A98012886
:1051E00012D0FFE70A9802282ED04DE09DF831003A
:1051F00020B9FFE70E980130099002E000200990E5
:10520000FFE709980E904FE09DF83100012805D185
:10521000FFE79DF836000130089002E0002008907A
:10522000FFE708988DF836009DF8310028B1FFE7B8
:105230009DF837000130079002E000200790FFE75B
:1052400007988DF837002FE09DF83100022805D12E
:10525000FFE79DF835000130069002E0002006903F
:10526000FFE706988DF835009DF8310028B1FFE77B
:105270009DF837000130059002E000200590FFE71F
:1052800005988DF837000FE09DF8310028B1FFE751
:105290009DF837000130049002E000200490FFE701
:1052A00004988DF83700FFE79DF830008DF8310045
:1052B0009DF83300C00750B9FFE70E980B2806DBB6
:1052C000FFE70B200E9001208DF83400FFE79DF8DA
:1052D0003400C00768B1FFE79DF83700022808DBFB
:1052E000FFE701208DF8330000208DF834000E9088
:1052F000FFE79DF83300C007002868D0FFE79DF85E
:105300003200C007F8B9FFE79DF83210012088434A
:105310008DF8320043F2DC50C2F2000003900068C6
:105320004FF6FF7148F074F843F26C50C2F200007F
:10533000006832F0FFFD03980068002319461A4602
:1053400047F062FE1EE09DF83210012088438DF880
:10535000320043F2DC50C2F20000029000684FF6C7
:10536000FF7148F055F843F2C050C2F200000068E7
:1053700032F0E0FD02980068002319461A4647F013
:1053800043FEFFE74CF2C750C0F605005C21FEF774
:10539000DBF850B1FFE74CF2C750C0F605005C21C6
:1053A000FEF7D2F80130019005E04CF2C750C0F68C
:1053B00005000190FFE701994CF27B50C0F6050013
:1053C000E32205F0BFF900208DF83300FFE70A2043
:1053D00047F05EF900F0AAFE42F20801C4F20101B2
:1053E000086840F480700860E0E6000080B584B092
:1053F000FFE743F2D850C2F20000029000684FF677
:10540000FF71009148F004F800F08AFF10EE100AD6
:105410004CF09EFE41EC100B43F21860C2F200000B
:10542000FFF7E2F8029843F2F051C2F2000181ED79
:10543000000B00680023019319461A4647F0E4FD6B
:105440004FF4F570039047F023F900990298006833
:1054500047F0DEFF00F0A0FE10EE100A4CF078FEE0
:1054600041EC100B43F2A050C2F20000FFF7BCF871
:1054700049F006FF51EC100B4CF058FB019B014624
:10548000029843F2E052C2F200021160006819462D
:105490001A4647F0B9FD039847F0FAF8A9E700006B
:1054A00080B58CB043F2DC50C2F20000039000687B
:1054B0004FF6FF7147F0ACFFFFF704FE06A802901D
:1054C0008C221146FEF754FB0298FEF767F9FFF7AE
:1054D000CFF900F03DFAFFF7D5FAFEF731FD43F2C0
:1054E000C050C2F20000006832F024FD039800684A
:1054F0000023049319461A4647F086FD04988DF858
:10550000170048F077FAADF81400FFE7FFE7FFE770
:1055100005A8C82148F0D0F8FFE7FFE743F2DC50C8
:10552000C2F2000000684FF6FF7147F071FF9DF86E
:10553000170001460191042841D80199DFE801F0E4
:1055400003111E2B380043F2F050C2F2000090ED20
:10555000000B00F0DDFB9DF8170001308DF81700FF
:105560002EE043F2E050C2F200000068FFF760FB5B
:105570009DF8170001308DF8170021E043F2E45048
:10558000C2F200000068FEF789FF9DF817000130A5
:105590008DF8170014E043F2E850C2F200000068F2
:1055A000FEF79AFF9DF8170001308DF8170007E00D
:1055B00006A8FEF78DF800208DF8170000E0FFE741
:1055C00043F2DC50C2F200000068002319461A467C
:1055D00047F01AFD9AE7000080B582B0FFE743F27A
:1055E000DC50C2F20000019000684FF6FF7147F0F6
:1055F0000FFF37F01DFE01980068002319461A4678
:1056000047F002FD0A2047F043F8E8E780B584B090
:10561000FFE743F2D850C2F200000068C82147F00B
:10562000F7FE00283ED0FFE703A802A90DF107020C
:105630000DF10603FEF7F4FA43F2D850C2F200006F
:105640000068002319461A4647F0DEFC9DF8060064
:1056500088B1FFE70298DD2803DBFFE70020009018
:1056600002E002980090FFE7009843F2E451C2F292
:1056700000010860FFE79DF8070058B1FFE70398B5
:105680005B2807DBFFE7039843F2E851C2F2000111
:10569000086006E043F2E851C2F200010020086011
:1056A000FFE7FFE74FF47A7046F0F2FFB1E7000042
:1056B00080B58CB001200690002109910322089248
:1056C00047F0FAFB089A09990346069843F2DC5C16
:1056D000C2F2000CCDF810C0CCF8003047F0ECFB63
:1056E000099B0146049843F2D852C2F20002059287
:1056F0001160006819461A4647F086FC099B059818
:10570000006819461A4647F07FFC00F03DFDFEF7A1
:10571000EFFAFFF731F823F07FFA31F079FA0698C3
:10572000099B43F2CC52C2F2000269464A6008600B
:1057300045F2ED30C0F600004CF29C51C0F6050178
:105740004FF4807247F08EFF099B014606980B913B
:1057500043F2D452C2F2000269464A60086045F240
:105760000D60C0F600004CF28E51C0F605014FF4FA
:10577000806247F077FF099B014608980B9143F23E
:10578000D052C2F2000269464A60086045F2D95020
:10579000C0F600004CF2B351C0F605014FF40062B0
:1057A000079247F05FFF079A099B014608980B9103
:1057B00043F2C45CC2F2000C6946C1F804C0086040
:1057C00045F2A140C0F600004CF2BD51C0F6050103
:1057D00047F048FF099B0B9043F2C851C2F2000109
:1057E00068464160036045F27D10C0F600004CF24F
:1057F000A851C0F605014FF4007247F033FF099B32
:105800000B9044F2FD40C0F60000694608604CF27F
:10581000D950C0F6050044F620611A4648F03CFD18
:105820000A900A9868B1FFE70A98039048F0E2F8F6
:1058300002460398694600230B60012148F07CFD75
:10584000FFE70CB080BD000080B58EB0012106914D
:105850000846FCF7C7FB06994FF48050FCF7FAFBAB
:10586000E0200790022104918DF820100020039081
:105870008DF822008DF821108DF823000020C4F24D
:105880000200019007A9FCF743FA01980522029251
:105890001146FCF7B9FA0198029A0621FCF7B4FA0E
:1058A0000198029A0721FCF7AFFA0398ADF824009B
:1058B0004FF48271ADF82610ADF82800ADF82A003B
:1058C000ADF82C004FF40071ADF82E10ADF830009B
:1058D000ADF832000A20ADF8340043F20000C4F203
:1058E0000100059009A9FCF7DFFC04990598069AC8
:1058F000FCF7C0FC05980699FCF7A6FC0EB080BD2D
:1059000081B08DF80300FFE743F20800C4F2010004
:1059100000888007002801D4FFE7F5E79DF8030021
:1059200043F20C01C4F201010880FFE743F20800D2
:10593000C4F201000088C00708B9FFE7F6E743F2A8
:105940000C00C4F20100008801B0704700000000A4
:1059500080B5C0B043F2C050C2F20000006832F01F
:1059600079F9014643F21460C2F200000790016029
:105970000068322196222FF0F9FE07980068012175
:105980000B9132F02FFA0798006804210C9132F045
:105990005BFA0798006809216FF077026FF01D032A
:1059A00027F096F907980068152132F0AFFA0798AA
:1059B00000680521039132F02FFA039907980068D7
:1059C0004FF4A02202922FF0DDFF079800686FF0DD
:1059D00027013C2232F04CFA0798006840F2E85167
:1059E000C2F2000132F068FA4EF2F000C2F200009A
:1059F000009033F091FE00980821069134F00EFAE1
:105A000000984AF69C71C0F6050134F073FC0398C7
:105A10000321099130F0AAFD014600983E919DF8BE
:105A2000FA108DF8FE10BDF8F810ADF8FC109DF8D6
:105A3000FE108DF8F610BDF8FC10ADF8F4103D998D
:105A400034F03CFC0398099930F090FD0146009831
:105A50003B919DF8EE108DF8F210BDF8EC10ADF80A
:105A6000F0109DF8F2108DF8EA10BDF8F010ADF8C6
:105A7000E8103A9934F0E0F900980B9934F0F8F90D
:105A80000099079800684FF4003227F05FF84EF253
:105A9000FC00C2F20000019033F03EFE03980221A8
:105AA000049130F0B9FD0146019838919DF8E2105B
:105AB0008DF8E610BDF8E010ADF8E4109DF8E610A2
:105AC0008DF8DE10BDF8E410ADF8DC10379934F035
:105AD000B3F901980B9934F0CBF90199029A079820
